:100000000A128A11FC2F00308A000408840A820731
:1000100000346C343A3420346C3469346E346834CF
:1000200061342034203420342034203420342034EF
:100030002034003463343A34203463346F346C3405
:1000400075346E346134203420342034203420342C
:100050002034203400344634693462346F346E34D2
:1000600061346334633469343A34203420342034C6
:100070002034203420340034203420342034203400
:10008000483444343434343437343834303420341D
:1000900020342034203420340034733474347234E7
:1000A0003A34203473347434723469346E346734BF
:1000B00020342034203420342034003420342034C0
:1000C00069346E3469346334693461346C3469344E
:1000D0007A34613420342034203420340034203405
:1000E000203444346934733470346C34613479347A
:1000F00020344C344334443420342034203400340D
:10010000203464346934733470344C3443344434AC
:100110005F3469346E3469347434283429342034BB
:10012000003464346934733470344C3443344434AC
:1001300028346C342C3463342C3473347434723477
:04014000293400342A
:10097E0001300A128A11F6240800F10083120313C3
:10098E0008177108860088130D30F000F00BCD2C7F
:10099E008312031388170800F5007508F40006305B
:1009AE000310F40DFF3E031DD72C730874077F3917
:1009BE00803E0A128A11F624080070087104031989
:1009CE000800C730F200EB2CF20BEA2CEE2CEF2CC9
:1009DE000130F0020030031CF103F102E42CF200AE
:1009EE008312031308137208860088130330F10074
:1009FE009730F000F00B012DF10B012D062D831217
:100A0E00031388170800831603178901831603132F
:100A1E0086018813081383120313881738300A12BD
:100A2E008A11F6240A128A110C300A128A11F6243F
:100A3E000A128A1101300A128A11F6240A128A1138
:100A4E0002300A128A11F6240800FA007608F8001D
:100A5E007808F9007608F8007808F3007A080A1288
:100A6E008A11D3240A128A11770884000A128A1175
:100A7E0003200A128A11003A03190800770884002D
:100A8E000A128A1103200A128A110A128A11C42428
:100A9E000A128A110130F8007808F7070130F800C1
:100AAE007808F9073B2DF601F31F642DF209F309BF
:100ABE00F20A0319F30AF601F60AF11F6B2DF0097B
:100ACE00F109F00A0319F10A700871040319982D3F
:100ADE00F501F50AF11B7F2D01300310F00DF10D1C
:100AEE00FF3E031D742D0130F4007408F507712DBF
:100AFE0071087302031D852D70087202031C8D2D63
:100B0E007008F2027108031CF303F30201300310A4
:100B1E00F10CF00CFF3E031D8E2D0130F502031D6E
:100B2E007F2D76080319A02DF209F309F20A031995
:100B3E00F30A7308F1007208F0000800F601F11FC5
:100B4E00AF2DF009F109F00A0319F10AF601F60AC0
:100B5E00F31FBA2DF209F309F20A0319F30A013051
:100B6E00F4007408F606F701F80170087104031911
:100B7E00F12DF501F50AF11BD02D01300310F00D0A
:100B8E00F10DFF3E031DC52D0130F4007408F5076D
:100B9E00C22D01300310F70DF80DFF3E031DD12DB0
:100BAE0071087302031DDD2D70087202031CE62D01
:100BBE007008F2027108031CF303F302771401307C
:100BCE000310F10CF00CFF3E031DE72D0130F50272
:100BDE00031DD02D76080319F92DF709F809F70A28
:100BEE000319F80A7808F1007708F000080083125C
:100BFE000313A300FB1F052E0130062E0030A000AC
:100C0E002008A50025080319112EFA09FB09FA0A76
:100C1E000319FB0A7908A0002008F30023080A1222
:100C2E008A11D3240A128A11103083120313A600DC
:100C3E002730A7000530A0002008A4002708803A1E
:100C4E00FF0080307F02031D2E2E01302602031C72
:100C5E00632E831203132708F1002608F0007B0889
:100C6E00F3007A08F2000A128A11A5250A128A11D7
:100C7E0070087104031D632E013083120313A40246
:100C8E000A30F0000030F1002708F3002608F200C9
:100C9E000A128A11A5250A128A11710883120313EA
:100CAE00A7007008A600252E20300A128A11C4242F
:100CBE000A128A110130FC0283120313240825073D
:100CCE00A000A101A10D2108803AA20080302202CD
:100CDE00031D732E7C0820020318792E02307C022D
:100CEE0003185B2E8312031325080319842E2D304F
:100CFE000A128A11C4240A128A11831203132708B6
:100D0E00F1002608F0007B08F3007A08F2000A12C0
:100D1E008A11A5250A128A117008303E0A128A110C
:100D2E00C4240A128A11831203132708F10026081D
:100D3E00F0007B08F3007A08F2000A128A115A2595
:100D4E000A128A117108FB007008FA000A30F000CE
:100D5E000030F100831203132708F3002608F20077
:100D6E000A128A11A5250A128A1171088312031319
:100D7E00A7007008A6002708803AFF0080307F0287
:100D8E00031DCB2E01302602031C0800842E831275
:100D9E000313B001B1010130AE000030AF00AC0161
:100DAE00AD01AA01AB010A128A110A250A128A1193
:100DBE00D42FF601673083120313A8002808F7001A
:100DCE0000300A128A112C250A128A110130C62F00
:100DDE00F601343083120313A8002808F7000130FF
:100DEE000A128A112C250A128A110230442F0A1275
:100DFE008A11BF240A128A11033083120313B00022
:100E0E000030B100F430F0000130CE2FF601783012
:100E1E0083120313A8002808F70000300A128A1163
:100E2E002C250A128A11F601563083120313A800DC
:100E3E002808F70001300A128A112C250A128A118D
:100E4E000430C62FF601893083120313A800280838
:100E5E00F70000300A128A112C250A128A11F601A7
:100E6E00013083120313A8002808F70001300A127C
:100E7E008A112C250A128A11053083120313B00031
:100E8E000030B100D030F0000730CE2FF601123016
:100E9E0083120313A8002808F70001300A128A11E2
:100EAE002C250A128A110630C62FF6014530831200
:100EBE000313A8002808F70001300A128A112C2506
:100ECE000A128A110A3083120313B0000030B100E7
:100EDE00DC30F0000530CE2FF6016730831203139D
:100EEE00A8002808F70000300A128A112C250A12D1
:100EFE008A11F601233083120313A8002808F70085
:100F0E0001300A128A112C250A128A118312031338
:100F1E00AC01AD01AA01AB010130AE000030AF0053
:100F2E000B30AF2F2D08AB002C08AA002F08AD00F8
:100F3E002E08AC002A082C07AE002B0803182B0A2B
:100F4E002D07AF00AF1FAE2FB001B101D42F0C3063
:100F5E00B0000030B100D42F0B30A8002808F900E3
:100F6E002F08FB002E08FA000530A9002908FC0006
:100F7E0001300A128A11FE250A128A110B308312D1
:100F8E000313B0000030B100E830F0000330F10080
:100F9E000A128A11E4240A128A11831203133108E9
:100FAE00003A0319DB2FD42F3008003A0319E02E34
:100FBE00013A0319EF2E033A0319FE2E013A0319D3
:100FCE000D2F073A0319292F013A03194D2F033A12
:100FDE0003195C2F0C3A0319732F013A0319992F39
:100FEE00073A0319B32FD42FD42F83010A128A1173
:020FFE00CE2EF5
:02400E00D4EFED
:00000001FF
